{"contracts/Bird.sol":{"Bird":{"abi":[{"inputs":[],"stateMutability":"nonpayable","type":"constructor"},{"inputs":[],"name":"crow","outputs":[],"stateMutability":"nonpayable","type":"function"},{"inputs":[],"name":"displayBirdEnergy","outputs":[{"internalType":"int8","name":"","type":"int8"}],"stateMutability":"view","type":"function"},{"inputs":[],"name":"eatWater","outputs":[],"stateMutability":"nonpayable","type":"function"},{"inputs":[],"name":"eatWorm","outputs":[],"stateMutability":"nonpayable","type":"function"},{"inputs":[],"name":"fly","outputs":[],"stateMutability":"nonpayable","type":"function"}],"evm":{"bytecode":{"linkReferences":{},"object":"608060405234801561001057600080fd5b5060008060006101000a81548160ff021916908360000b60ff1602179055506103c48061003e6000396000f3fe608060405234801561001057600080fd5b50600436106100575760003560e01c80632c2e3abf1461005c5780636bd0cd7b146100665780637b19578b146100845780639fadeabf1461008e578063a8ac3dd614610098575b600080fd5b6100646100a2565b005b61006e6100ae565b60405161007b9190610215565b60405180910390f35b61008c6100bd565b005b6100966100c7565b005b6100a06100d3565b005b6100ac60026100dd565b565b60006100b8610173565b905090565b6100c5610189565b565b6100d160016100dd565b565b6100db6101c1565b565b60008160008054906101000a900460000b6100f8919061025f565b60000b1361013b576040517f08c379a000000000000000000000000000000000000000000000000000000000815260040161013290610315565b60405180910390fd5b8060008054906101000a900460000b610154919061025f565b6000806101000a81548160ff021916908360000b60ff16021790555050565b60008060009054906101000a900460000b905090565b600560008054906101000a900460000b6101a39190610335565b6000806101000a81548160ff021916908360000b60ff160217905550565b600160008054906101000a900460000b6101db9190610335565b6000806101000a81548160ff021916908360000b60ff160217905550565b60008160000b9050919050565b61020f816101f9565b82525050565b600060208201905061022a6000830184610206565b92915050565b7f4e487b7100000000000000000000000000000000000000000000000000000000600052601160045260246000fd5b600061026a826101f9565b9150610275836101f9565b92508282039050607f81137fffffffffffffffffffffffffffffffffffffffffffffffffffffffffffffff80821217156102b2576102b1610230565b5b92915050565b600082825260208201905092915050565b7f4c6f7720656e657267793a2063616e6e6f7420646f2061637469766974790000600082015250565b60006102ff601e836102b8565b915061030a826102c9565b602082019050919050565b6000602082019050818103600083015261032e816102f2565b9050919050565b6000610340826101f9565b915061034b836101f9565b925082820190507fffffffffffffffffffffffffffffffffffffffffffffffffffffffffffffff808112607f8213171561038857610387610230565b5b9291505056fea26469706673582212200dc75a8cc71934f6cc9e8c4c836c2507a84a6d1dcf5b73627845da00d4afb0f664736f6c63430008110033","opcodes":"PUSH1 0x80 PUSH1 0x40 MSTORE CALLVALUE DUP1 ISZERO PUSH2 0x10 JUMPI PUSH1 0x0 DUP1 REVERT JUMPDEST POP PUSH1 0x0 DUP1 PUSH1 0x0 PUSH2 0x100 EXP DUP2 SLOAD DUP2 PUSH1 0xFF MUL NOT AND SWAP1 DUP4 PUSH1 0x0 SIGNEXTEND PUSH1 0xFF AND MUL OR SWAP1 SSTORE POP PUSH2 0x3C4 DUP1 PUSH2 0x3E PUSH1 0x0 CODECOPY PUSH1 0x0 RETURN INVALID PUSH1 0x80 PUSH1 0x40 MSTORE CALLVALUE DUP1 ISZERO PUSH2 0x10 JUMPI PUSH1 0x0 DUP1 REVERT JUMPDEST POP PUSH1 0x4 CALLDATASIZE LT PUSH2 0x57 JUMPI PUSH1 0x0 CALLDATALOAD PUSH1 0xE0 SHR DUP1 PUSH4 0x2C2E3ABF EQ PUSH2 0x5C JUMPI DUP1 PUSH4 0x6BD0CD7B EQ PUSH2 0x66 JUMPI DUP1 PUSH4 0x7B19578B EQ PUSH2 0x84 JUMPI DUP1 PUSH4 0x9FADEABF EQ PUSH2 0x8E JUMPI DUP1 PUSH4 0xA8AC3DD6 EQ PUSH2 0x98 JUMPI JUMPDEST PUSH1 0x0 DUP1 REVERT JUMPDEST PUSH2 0x64 PUSH2 0xA2 JUMP JUMPDEST STOP JUMPDEST PUSH2 0x6E PUSH2 0xAE JUMP JUMPDEST PUSH1 0x40 MLOAD PUSH2 0x7B SWAP2 SWAP1 PUSH2 0x215 JUMP JUMPDEST PUSH1 0x40 MLOAD DUP1 SWAP2 SUB SWAP1 RETURN JUMPDEST PUSH2 0x8C PUSH2 0xBD JUMP JUMPDEST STOP JUMPDEST PUSH2 0x96 PUSH2 0xC7 JUMP JUMPDEST STOP JUMPDEST PUSH2 0xA0 PUSH2 0xD3 JUMP JUMPDEST STOP JUMPDEST PUSH2 0xAC PUSH1 0x2 PUSH2 0xDD JUMP JUMPDEST JUMP JUMPDEST PUSH1 0x0 PUSH2 0xB8 PUSH2 0x173 JUMP JUMPDEST SWAP1 POP SWAP1 JUMP JUMPDEST PUSH2 0xC5 PUSH2 0x189 JUMP JUMPDEST JUMP JUMPDEST PUSH2 0xD1 PUSH1 0x1 PUSH2 0xDD JUMP JUMPDEST JUMP JUMPDEST PUSH2 0xDB PUSH2 0x1C1 JUMP JUMPDEST JUMP JUMPDEST PUSH1 0x0 DUP2 PUSH1 0x0 DUP1 SLOAD SWAP1 PUSH2 0x100 EXP SWAP1 DIV PUSH1 0x0 SIGNEXTEND PUSH2 0xF8 SWAP2 SWAP1 PUSH2 0x25F JUMP JUMPDEST PUSH1 0x0 SIGNEXTEND SGT PUSH2 0x13B JUMPI PUSH1 0x40 MLOAD PUSH32 0x8C379A000000000000000000000000000000000000000000000000000000000 DUP2 MSTORE PUSH1 0x4 ADD PUSH2 0x132 SWAP1 PUSH2 0x315 JUMP JUMPDEST PUSH1 0x40 MLOAD DUP1 SWAP2 SUB SWAP1 REVERT JUMPDEST DUP1 PUSH1 0x0 DUP1 SLOAD SWAP1 PUSH2 0x100 EXP SWAP1 DIV PUSH1 0x0 SIGNEXTEND PUSH2 0x154 SWAP2 SWAP1 PUSH2 0x25F JUMP JUMPDEST PUSH1 0x0 DUP1 PUSH2 0x100 EXP DUP2 SLOAD DUP2 PUSH1 0xFF MUL NOT AND SWAP1 DUP4 PUSH1 0x0 SIGNEXTEND PUSH1 0xFF AND MUL OR SWAP1 SSTORE POP POP JUMP JUMPDEST PUSH1 0x0 DUP1 PUSH1 0x0 SWAP1 SLOAD SWAP1 PUSH2 0x100 EXP SWAP1 DIV PUSH1 0x0 SIGNEXTEND SWAP1 POP SWAP1 JUMP JUMPDEST PUSH1 0x5 PUSH1 0x0 DUP1 SLOAD SWAP1 PUSH2 0x100 EXP SWAP1 DIV PUSH1 0x0 SIGNEXTEND PUSH2 0x1A3 SWAP2 SWAP1 PUSH2 0x335 JUMP JUMPDEST PUSH1 0x0 DUP1 PUSH2 0x100 EXP DUP2 SLOAD DUP2 PUSH1 0xFF MUL NOT AND SWAP1 DUP4 PUSH1 0x0 SIGNEXTEND PUSH1 0xFF AND MUL OR SWAP1 SSTORE POP JUMP JUMPDEST PUSH1 0x1 PUSH1 0x0 DUP1 SLOAD SWAP1 PUSH2 0x100 EXP SWAP1 DIV PUSH1 0x0 SIGNEXTEND PUSH2 0x1DB SWAP2 SWAP1 PUSH2 0x335 JUMP JUMPDEST PUSH1 0x0 DUP1 PUSH2 0x100 EXP DUP2 SLOAD DUP2 PUSH1 0xFF MUL NOT AND SWAP1 DUP4 PUSH1 0x0 SIGNEXTEND PUSH1 0xFF AND MUL OR SWAP1 SSTORE POP JUMP JUMPDEST PUSH1 0x0 DUP2 PUSH1 0x0 SIGNEXTEND SWAP1 POP SWAP2 SWAP1 POP JUMP JUMPDEST PUSH2 0x20F DUP2 PUSH2 0x1F9 JUMP JUMPDEST DUP3 MSTORE POP POP JUMP JUMPDEST PUSH1 0x0 PUSH1 0x20 DUP3 ADD SWAP1 POP PUSH2 0x22A PUSH1 0x0 DUP4 ADD DUP5 PUSH2 0x206 JUMP JUMPDEST SWAP3 SWAP2 POP POP JUMP JUMPDEST PUSH32 0x4E487B7100000000000000000000000000000000000000000000000000000000 PUSH1 0x0 MSTORE PUSH1 0x11 PUSH1 0x4 MSTORE PUSH1 0x24 PUSH1 0x0 REVERT JUMPDEST PUSH1 0x0 PUSH2 0x26A DUP3 PUSH2 0x1F9 JUMP JUMPDEST SWAP2 POP PUSH2 0x275 DUP4 PUSH2 0x1F9 JUMP JUMPDEST SWAP3 POP DUP3 DUP3 SUB SWAP1 POP PUSH1 0x7F DUP2 SGT PUSH32 0xFFFFFFFFFFFFFFFFFFFFFFFFFFFFFFFFFFFFFFFFFFFFFFFFFFFFFFFFFFFFFF80 DUP3 SLT OR ISZERO PUSH2 0x2B2 JUMPI PUSH2 0x2B1 PUSH2 0x230 JUMP JUMPDEST JUMPDEST SWAP3 SWAP2 POP POP JUMP JUMPDEST PUSH1 0x0 DUP3 DUP3 MSTORE PUSH1 0x20 DUP3 ADD SWAP1 POP SWAP3 SWAP2 POP POP JUMP JUMPDEST PUSH32 0x4C6F7720656E657267793A2063616E6E6F7420646F2061637469766974790000 PUSH1 0x0 DUP3 ADD MSTORE POP JUMP JUMPDEST PUSH1 0x0 PUSH2 0x2FF PUSH1 0x1E DUP4 PUSH2 0x2B8 JUMP JUMPDEST SWAP2 POP PUSH2 0x30A DUP3 PUSH2 0x2C9 JUMP JUMPDEST PUSH1 0x20 DUP3 ADD SWAP1 POP SWAP2 SWAP1 POP JUMP JUMPDEST PUSH1 0x0 PUSH1 0x20 DUP3 ADD SWAP1 POP DUP2 DUP2 SUB PUSH1 0x0 DUP4 ADD MSTORE PUSH2 0x32E DUP2 PUSH2 0x2F2 JUMP JUMPDEST SWAP1 POP SWAP2 SWAP1 POP JUMP JUMPDEST PUSH1 0x0 PUSH2 0x340 DUP3 PUSH2 0x1F9 JUMP JUMPDEST SWAP2 POP PUSH2 0x34B DUP4 PUSH2 0x1F9 JUMP JUMPDEST SWAP3 POP DUP3 DUP3 ADD SWAP1 POP PUSH32 0xFFFFFFFFFFFFFFFFFFFFFFFFFFFFFFFFFFFFFFFFFFFFFFFFFFFFFFFFFFFFFF80 DUP2 SLT PUSH1 0x7F DUP3 SGT OR ISZERO PUSH2 0x388 JUMPI PUSH2 0x387 PUSH2 0x230 JUMP JUMPDEST JUMPDEST SWAP3 SWAP2 POP POP JUMP INVALID LOG2 PUSH5 0x6970667358 0x22 SLT KECCAK256 0xD 0xC7 GAS DUP13 0xC7 NOT CALLVALUE 0xF6 0xCC SWAP15 DUP13 0x4C DUP4 PUSH13 0x2507A84A6D1DCF5B73627845DA STOP 0xD4 0xAF 0xB0 0xF6 PUSH5 0x736F6C6343 STOP ADDMOD GT STOP CALLER "},"methodIdentifiers":{"crow()":"9fadeabf","displayBirdEnergy()":"6bd0cd7b","eatWater()":"a8ac3dd6","eatWorm()":"7b19578b","fly()":"2c2e3abf"}}}}}