{"contracts/Dog.sol":{"Dog":{"abi":[{"inputs":[],"stateMutability":"nonpayable","type":"constructor"},{"inputs":[],"name":"bark","outputs":[],"stateMutability":"nonpayable","type":"function"},{"inputs":[],"name":"displayDogEnergy","outputs":[{"internalType":"int8","name":"","type":"int8"}],"stateMutability":"view","type":"function"},{"inputs":[],"name":"eatDogFood","outputs":[],"stateMutability":"nonpayable","type":"function"},{"inputs":[],"name":"eatWater","outputs":[],"stateMutability":"nonpayable","type":"function"},{"inputs":[],"name":"run","outputs":[],"stateMutability":"nonpayable","type":"function"}],"evm":{"bytecode":{"linkReferences":{},"object":"608060405234801561001057600080fd5b5060008060006101000a81548160ff021916908360000b60ff1602179055506103c48061003e6000396000f3fe608060405234801561001057600080fd5b50600436106100575760003560e01c8063779d06461461005c578063864f4a9a14610066578063a8ac3dd614610070578063c04062261461007a578063eda07db114610084575b600080fd5b6100646100a2565b005b61006e6100ac565b005b6100786100b8565b005b6100826100c2565b005b61008c6100ce565b6040516100999190610215565b60405180910390f35b6100aa6100dd565b565b6100b66001610115565b565b6100c06101ab565b565b6100cc6003610115565b565b60006100d86101e3565b905090565b600560008054906101000a900460000b6100f7919061025f565b6000806101000a81548160ff021916908360000b60ff160217905550565b60008160008054906101000a900460000b61013091906102b8565b60000b13610173576040517f08c379a000000000000000000000000000000000000000000000000000000000815260040161016a9061036e565b60405180910390fd5b8060008054906101000a900460000b61018c91906102b8565b6000806101000a81548160ff021916908360000b60ff16021790555050565b600160008054906101000a900460000b6101c5919061025f565b6000806101000a81548160ff021916908360000b60ff160217905550565b60008060009054906101000a900460000b905090565b60008160000b9050919050565b61020f816101f9565b82525050565b600060208201905061022a6000830184610206565b92915050565b7f4e487b7100000000000000000000000000000000000000000000000000000000600052601160045260246000fd5b600061026a826101f9565b9150610275836101f9565b925082820190507fffffffffffffffffffffffffffffffffffffffffffffffffffffffffffffff808112607f821317156102b2576102b1610230565b5b92915050565b60006102c3826101f9565b91506102ce836101f9565b92508282039050607f81137fffffffffffffffffffffffffffffffffffffffffffffffffffffffffffffff808212171561030b5761030a610230565b5b92915050565b600082825260208201905092915050565b7f4c6f7720656e657267793a2063616e6e6f7420646f2061637469766974790000600082015250565b6000610358601e83610311565b915061036382610322565b602082019050919050565b600060208201905081810360008301526103878161034b565b905091905056fea264697066735822122004bfddb80d0e966c85f991917498b2956393951ad595c4fe039e611bd0a0dfa664736f6c63430008110033","opcodes":"PUSH1 0x80 PUSH1 0x40 MSTORE CALLVALUE DUP1 ISZERO PUSH2 0x10 JUMPI PUSH1 0x0 DUP1 REVERT JUMPDEST POP PUSH1 0x0 DUP1 PUSH1 0x0 PUSH2 0x100 EXP DUP2 SLOAD DUP2 PUSH1 0xFF MUL NOT AND SWAP1 DUP4 PUSH1 0x0 SIGNEXTEND PUSH1 0xFF AND MUL OR SWAP1 SSTORE POP PUSH2 0x3C4 DUP1 PUSH2 0x3E PUSH1 0x0 CODECOPY PUSH1 0x0 RETURN INVALID PUSH1 0x80 PUSH1 0x40 MSTORE CALLVALUE DUP1 ISZERO PUSH2 0x10 JUMPI PUSH1 0x0 DUP1 REVERT JUMPDEST POP PUSH1 0x4 CALLDATASIZE LT PUSH2 0x57 JUMPI PUSH1 0x0 CALLDATALOAD PUSH1 0xE0 SHR DUP1 PUSH4 0x779D0646 EQ PUSH2 0x5C JUMPI DUP1 PUSH4 0x864F4A9A EQ PUSH2 0x66 JUMPI DUP1 PUSH4 0xA8AC3DD6 EQ PUSH2 0x70 JUMPI DUP1 PUSH4 0xC0406226 EQ PUSH2 0x7A JUMPI DUP1 PUSH4 0xEDA07DB1 EQ PUSH2 0x84 JUMPI JUMPDEST PUSH1 0x0 DUP1 REVERT JUMPDEST PUSH2 0x64 PUSH2 0xA2 JUMP JUMPDEST STOP JUMPDEST PUSH2 0x6E PUSH2 0xAC JUMP JUMPDEST STOP JUMPDEST PUSH2 0x78 PUSH2 0xB8 JUMP JUMPDEST STOP JUMPDEST PUSH2 0x82 PUSH2 0xC2 JUMP JUMPDEST STOP JUMPDEST PUSH2 0x8C PUSH2 0xCE JUMP JUMPDEST PUSH1 0x40 MLOAD PUSH2 0x99 SWAP2 SWAP1 PUSH2 0x215 JUMP JUMPDEST PUSH1 0x40 MLOAD DUP1 SWAP2 SUB SWAP1 RETURN JUMPDEST PUSH2 0xAA PUSH2 0xDD JUMP JUMPDEST JUMP JUMPDEST PUSH2 0xB6 PUSH1 0x1 PUSH2 0x115 JUMP JUMPDEST JUMP JUMPDEST PUSH2 0xC0 PUSH2 0x1AB JUMP JUMPDEST JUMP JUMPDEST PUSH2 0xCC PUSH1 0x3 PUSH2 0x115 JUMP JUMPDEST JUMP JUMPDEST PUSH1 0x0 PUSH2 0xD8 PUSH2 0x1E3 JUMP JUMPDEST SWAP1 POP SWAP1 JUMP JUMPDEST PUSH1 0x5 PUSH1 0x0 DUP1 SLOAD SWAP1 PUSH2 0x100 EXP SWAP1 DIV PUSH1 0x0 SIGNEXTEND PUSH2 0xF7 SWAP2 SWAP1 PUSH2 0x25F JUMP JUMPDEST PUSH1 0x0 DUP1 PUSH2 0x100 EXP DUP2 SLOAD DUP2 PUSH1 0xFF MUL NOT AND SWAP1 DUP4 PUSH1 0x0 SIGNEXTEND PUSH1 0xFF AND MUL OR SWAP1 SSTORE POP JUMP JUMPDEST PUSH1 0x0 DUP2 PUSH1 0x0 DUP1 SLOAD SWAP1 PUSH2 0x100 EXP SWAP1 DIV PUSH1 0x0 SIGNEXTEND PUSH2 0x130 SWAP2 SWAP1 PUSH2 0x2B8 JUMP JUMPDEST PUSH1 0x0 SIGNEXTEND SGT PUSH2 0x173 JUMPI PUSH1 0x40 MLOAD PUSH32 0x8C379A000000000000000000000000000000000000000000000000000000000 DUP2 MSTORE PUSH1 0x4 ADD PUSH2 0x16A SWAP1 PUSH2 0x36E JUMP JUMPDEST PUSH1 0x40 MLOAD DUP1 SWAP2 SUB SWAP1 REVERT JUMPDEST DUP1 PUSH1 0x0 DUP1 SLOAD SWAP1 PUSH2 0x100 EXP SWAP1 DIV PUSH1 0x0 SIGNEXTEND PUSH2 0x18C SWAP2 SWAP1 PUSH2 0x2B8 JUMP JUMPDEST PUSH1 0x0 DUP1 PUSH2 0x100 EXP DUP2 SLOAD DUP2 PUSH1 0xFF MUL NOT AND SWAP1 DUP4 PUSH1 0x0 SIGNEXTEND PUSH1 0xFF AND MUL OR SWAP1 SSTORE POP POP JUMP JUMPDEST PUSH1 0x1 PUSH1 0x0 DUP1 SLOAD SWAP1 PUSH2 0x100 EXP SWAP1 DIV PUSH1 0x0 SIGNEXTEND PUSH2 0x1C5 SWAP2 SWAP1 PUSH2 0x25F JUMP JUMPDEST PUSH1 0x0 DUP1 PUSH2 0x100 EXP DUP2 SLOAD DUP2 PUSH1 0xFF MUL NOT AND SWAP1 DUP4 PUSH1 0x0 SIGNEXTEND PUSH1 0xFF AND MUL OR SWAP1 SSTORE POP JUMP JUMPDEST PUSH1 0x0 DUP1 PUSH1 0x0 SWAP1 SLOAD SWAP1 PUSH2 0x100 EXP SWAP1 DIV PUSH1 0x0 SIGNEXTEND SWAP1 POP SWAP1 JUMP JUMPDEST PUSH1 0x0 DUP2 PUSH1 0x0 SIGNEXTEND SWAP1 POP SWAP2 SWAP1 POP JUMP JUMPDEST PUSH2 0x20F DUP2 PUSH2 0x1F9 JUMP JUMPDEST DUP3 MSTORE POP POP JUMP JUMPDEST PUSH1 0x0 PUSH1 0x20 DUP3 ADD SWAP1 POP PUSH2 0x22A PUSH1 0x0 DUP4 ADD DUP5 PUSH2 0x206 JUMP JUMPDEST SWAP3 SWAP2 POP POP JUMP JUMPDEST PUSH32 0x4E487B7100000000000000000000000000000000000000000000000000000000 PUSH1 0x0 MSTORE PUSH1 0x11 PUSH1 0x4 MSTORE PUSH1 0x24 PUSH1 0x0 REVERT JUMPDEST PUSH1 0x0 PUSH2 0x26A DUP3 PUSH2 0x1F9 JUMP JUMPDEST SWAP2 POP PUSH2 0x275 DUP4 PUSH2 0x1F9 JUMP JUMPDEST SWAP3 POP DUP3 DUP3 ADD SWAP1 POP PUSH32 0xFFFFFFFFFFFFFFFFFFFFFFFFFFFFFFFFFFFFFFFFFFFFFFFFFFFFFFFFFFFFFF80 DUP2 SLT PUSH1 0x7F DUP3 SGT OR ISZERO PUSH2 0x2B2 JUMPI PUSH2 0x2B1 PUSH2 0x230 JUMP JUMPDEST JUMPDEST SWAP3 SWAP2 POP POP JUMP JUMPDEST PUSH1 0x0 PUSH2 0x2C3 DUP3 PUSH2 0x1F9 JUMP JUMPDEST SWAP2 POP PUSH2 0x2CE DUP4 PUSH2 0x1F9 JUMP JUMPDEST SWAP3 POP DUP3 DUP3 SUB SWAP1 POP PUSH1 0x7F DUP2 SGT PUSH32 0xFFFFFFFFFFFFFFFFFFFFFFFFFFFFFFFFFFFFFFFFFFFFFFFFFFFFFFFFFFFFFF80 DUP3 SLT OR ISZERO PUSH2 0x30B JUMPI PUSH2 0x30A PUSH2 0x230 JUMP JUMPDEST JUMPDEST SWAP3 SWAP2 POP POP JUMP JUMPDEST PUSH1 0x0 DUP3 DUP3 MSTORE PUSH1 0x20 DUP3 ADD SWAP1 POP SWAP3 SWAP2 POP POP JUMP JUMPDEST PUSH32 0x4C6F7720656E657267793A2063616E6E6F7420646F2061637469766974790000 PUSH1 0x0 DUP3 ADD MSTORE POP JUMP JUMPDEST PUSH1 0x0 PUSH2 0x358 PUSH1 0x1E DUP4 PUSH2 0x311 JUMP JUMPDEST SWAP2 POP PUSH2 0x363 DUP3 PUSH2 0x322 JUMP JUMPDEST PUSH1 0x20 DUP3 ADD SWAP1 POP SWAP2 SWAP1 POP JUMP JUMPDEST PUSH1 0x0 PUSH1 0x20 DUP3 ADD SWAP1 POP DUP2 DUP2 SUB PUSH1 0x0 DUP4 ADD MSTORE PUSH2 0x387 DUP2 PUSH2 0x34B JUMP JUMPDEST SWAP1 POP SWAP2 SWAP1 POP JUMP INVALID LOG2 PUSH5 0x6970667358 0x22 SLT KECCAK256 DIV 0xBF 0xDD 0xB8 0xD 0xE SWAP7 PUSH13 0x85F991917498B2956393951AD5 SWAP6 0xC4 INVALID SUB SWAP15 PUSH2 0x1BD0 LOG0 0xDF 0xA6 PUSH5 0x736F6C6343 STOP ADDMOD GT STOP CALLER "},"methodIdentifiers":{"bark()":"864f4a9a","displayDogEnergy()":"eda07db1","eatDogFood()":"779d0646","eatWater()":"a8ac3dd6","run()":"c0406226"}}}}}