{
  "_format": "hh-sol-artifact-1",
  "contractName": "Dog",
  "sourceName": "contracts/Dog.sol",
  "abi": [
    {
      "inputs": [],
      "stateMutability": "nonpayable",
      "type": "constructor"
    },
    {
      "inputs": [],
      "name": "bark",
      "outputs": [],
      "stateMutability": "nonpayable",
      "type": "function"
    },
    {
      "inputs": [],
      "name": "displayDogEnergy",
      "outputs": [
        {
          "internalType": "int8",
          "name": "",
          "type": "int8"
        }
      ],
      "stateMutability": "view",
      "type": "function"
    },
    {
      "inputs": [],
      "name": "eatDogFood",
      "outputs": [],
      "stateMutability": "nonpayable",
      "type": "function"
    },
    {
      "inputs": [],
      "name": "eatWater",
      "outputs": [],
      "stateMutability": "nonpayable",
      "type": "function"
    },
    {
      "inputs": [],
      "name": "run",
      "outputs": [],
      "stateMutability": "nonpayable",
      "type": "function"
    }
  ],
  "bytecode": "0x608060405234801561001057600080fd5b5060008060006101000a81548160ff021916908360000b60ff1602179055506103c48061003e6000396000f3fe608060405234801561001057600080fd5b50600436106100575760003560e01c8063779d06461461005c578063864f4a9a14610066578063a8ac3dd614610070578063c04062261461007a578063eda07db114610084575b600080fd5b6100646100a2565b005b61006e6100ac565b005b6100786100b8565b005b6100826100c2565b005b61008c6100ce565b6040516100999190610215565b60405180910390f35b6100aa6100dd565b565b6100b66001610115565b565b6100c06101ab565b565b6100cc6003610115565b565b60006100d86101e3565b905090565b600560008054906101000a900460000b6100f7919061025f565b6000806101000a81548160ff021916908360000b60ff160217905550565b60008160008054906101000a900460000b61013091906102b8565b60000b13610173576040517f08c379a000000000000000000000000000000000000000000000000000000000815260040161016a9061036e565b60405180910390fd5b8060008054906101000a900460000b61018c91906102b8565b6000806101000a81548160ff021916908360000b60ff16021790555050565b600160008054906101000a900460000b6101c5919061025f565b6000806101000a81548160ff021916908360000b60ff160217905550565b60008060009054906101000a900460000b905090565b60008160000b9050919050565b61020f816101f9565b82525050565b600060208201905061022a6000830184610206565b92915050565b7f4e487b7100000000000000000000000000000000000000000000000000000000600052601160045260246000fd5b600061026a826101f9565b9150610275836101f9565b925082820190507fffffffffffffffffffffffffffffffffffffffffffffffffffffffffffffff808112607f821317156102b2576102b1610230565b5b92915050565b60006102c3826101f9565b91506102ce836101f9565b92508282039050607f81137fffffffffffffffffffffffffffffffffffffffffffffffffffffffffffffff808212171561030b5761030a610230565b5b92915050565b600082825260208201905092915050565b7f4c6f7720656e657267793a2063616e6e6f7420646f2061637469766974790000600082015250565b6000610358601e83610311565b915061036382610322565b602082019050919050565b600060208201905081810360008301526103878161034b565b905091905056fea264697066735822122004bfddb80d0e966c85f991917498b2956393951ad595c4fe039e611bd0a0dfa664736f6c63430008110033",
  "linkReferences": {},
  "deployedLinkReferences": {}
}